{
  "_format": "hh-sol-artifact-1",
  "contractName": "ElectionFact",
  "sourceName": "contracts/Voting.sol",
  "abi": [
    {
      "inputs": [
        {
          "internalType": "string",
          "name": "email",
          "type": "string"
        },
        {
          "internalType": "string",
          "name": "election_name",
          "type": "string"
        },
        {
          "internalType": "string",
          "name": "election_description",
          "type": "string"
        }
      ],
      "name": "createElection",
      "outputs": [],
      "stateMutability": "nonpayable",
      "type": "function"
    },
    {
      "inputs": [
        {
          "internalType": "string",
          "name": "email",
          "type": "string"
        }
      ],
      "name": "getDeployedElection",
      "outputs": [
        {
          "components": [
            {
              "internalType": "address",
              "name": "deployedAddress",
              "type": "address"
            },
            {
              "internalType": "string",
              "name": "el_n",
              "type": "string"
            },
            {
              "internalType": "string",
              "name": "el_d",
              "type": "string"
            }
          ],
          "internalType": "struct ElectionFact.ElectionDet",
          "name": "",
          "type": "tuple"
        }
      ],
      "stateMutability": "view",
      "type": "function"
    }
  ],
  "bytecode": "0x608060405234801561001057600080fd5b506127df806100206000396000f3fe60806040523480156200001157600080fd5b50600436106200003a5760003560e01c806337f46549146200003f5780634a6cf3a91462000075575b600080fd5b6200005d6004803603810190620000579190620005a7565b62000095565b6040516200006c919062000723565b60405180910390f35b6200009360048036038101906200008d919062000747565b620002dd565b005b6200009f620003ec565b60008083604051620000b2919062000842565b908152602001604051809103902060000160009054906101000a900473ffffffffffffffffffffffffffffffffffffffff169050600073ffffffffffffffffffffffffffffffffffffffff168173ffffffffffffffffffffffffffffffffffffffff16036200012057600080fd5b60008360405162000132919062000842565b90815260200160405180910390206040518060600160405290816000820160009054906101000a900473ffffffffffffffffffffffffffffffffffffffff1673ffffffffffffffffffffffffffffffffffffffff1673ffffffffffffffffffffffffffffffffffffffff168152602001600182018054620001b3906200088a565b80601f0160208091040260200160405190810160405280929190818152602001828054620001e1906200088a565b8015620002325780601f10620002065761010080835404028352916020019162000232565b820191906000526020600020905b8154815290600101906020018083116200021457829003601f168201915b505050505081526020016002820180546200024d906200088a565b80601f01602080910402602001604051908101604052809291908181526020018280546200027b906200088a565b8015620002cc5780601f10620002a057610100808354040283529160200191620002cc565b820191906000526020600020905b815481529060010190602001808311620002ae57829003601f168201915b505050505081525050915050919050565b6000338383604051620002f09062000423565b620002fe9392919062000922565b604051809103906000f0801580156200031b573d6000803e3d6000fd5b5090508060008560405162000331919062000842565b908152602001604051809103902060000160006101000a81548173ffffffffffffffffffffffffffffffffffffffff021916908373ffffffffffffffffffffffffffffffffffffffff1602179055508260008560405162000393919062000842565b90815260200160405180910390206001019081620003b2919062000b49565b5081600085604051620003c6919062000842565b90815260200160405180910390206002019081620003e5919062000b49565b5050505050565b6040518060600160405280600073ffffffffffffffffffffffffffffffffffffffff16815260200160608152602001606081525090565b611b798062000c3183390190565b6000604051905090565b600080fd5b600080fd5b600080fd5b600080fd5b6000601f19601f8301169050919050565b7f4e487b7100000000000000000000000000000000000000000000000000000000600052604160045260246000fd5b6200049a826200044f565b810181811067ffffffffffffffff82111715620004bc57620004bb62000460565b5b80604052505050565b6000620004d162000431565b9050620004df82826200048f565b919050565b600067ffffffffffffffff82111562000502576200050162000460565b5b6200050d826200044f565b9050602081019050919050565b82818337600083830152505050565b6000620005406200053a84620004e4565b620004c5565b9050828152602081018484840111156200055f576200055e6200044a565b5b6200056c8482856200051a565b509392505050565b600082601f8301126200058c576200058b62000445565b5b81356200059e84826020860162000529565b91505092915050565b600060208284031215620005c057620005bf6200043b565b5b600082013567ffffffffffffffff811115620005e157620005e062000440565b5b620005ef8482850162000574565b91505092915050565b600073ffffffffffffffffffffffffffffffffffffffff82169050919050565b60006200062582620005f8565b9050919050565b620006378162000618565b82525050565b600081519050919050565b600082825260208201905092915050565b60005b83811015620006795780820151818401526020810190506200065c565b60008484015250505050565b600062000692826200063d565b6200069e818562000648565b9350620006b081856020860162000659565b620006bb816200044f565b840191505092915050565b6000606083016000830151620006e060008601826200062c565b5060208301518482036020860152620006fa828262000685565b9150506040830151848203604086015262000716828262000685565b9150508091505092915050565b600060208201905081810360008301526200073f8184620006c6565b905092915050565b6000806000606084860312156200076357620007626200043b565b5b600084013567ffffffffffffffff81111562000784576200078362000440565b5b620007928682870162000574565b935050602084013567ffffffffffffffff811115620007b657620007b562000440565b5b620007c48682870162000574565b925050604084013567ffffffffffffffff811115620007e857620007e762000440565b5b620007f68682870162000574565b9150509250925092565b600081905092915050565b600062000818826200063d565b62000824818562000800565b93506200083681856020860162000659565b80840191505092915050565b60006200085082846200080b565b915081905092915050565b7f4e487b7100000000000000000000000000000000000000000000000000000000600052602260045260246000fd5b60006002820490506001821680620008a357607f821691505b602082108103620008b957620008b86200085b565b5b50919050565b620008ca8162000618565b82525050565b600082825260208201905092915050565b6000620008ee826200063d565b620008fa8185620008d0565b93506200090c81856020860162000659565b62000917816200044f565b840191505092915050565b6000606082019050620009396000830186620008bf565b81810360208301526200094d8185620008e1565b90508181036040830152620009638184620008e1565b9050949350505050565b60008190508160005260206000209050919050565b60006020601f8301049050919050565b600082821b905092915050565b600060088302620009d17fffffffffffffffffffffffffffffffffffffffffffffffffffffffffffffffff8262000992565b620009dd868362000992565b95508019841693508086168417925050509392505050565b6000819050919050565b6000819050919050565b600062000a2a62000a2462000a1e84620009f5565b620009ff565b620009f5565b9050919050565b6000819050919050565b62000a468362000a09565b62000a5e62000a558262000a31565b8484546200099f565b825550505050565b600090565b62000a7562000a66565b62000a8281848462000a3b565b505050565b5b8181101562000aaa5762000a9e60008262000a6b565b60018101905062000a88565b5050565b601f82111562000af95762000ac3816200096d565b62000ace8462000982565b8101602085101562000ade578190505b62000af662000aed8562000982565b83018262000a87565b50505b505050565b600082821c905092915050565b600062000b1e6000198460080262000afe565b1980831691505092915050565b600062000b39838362000b0b565b9150826002028217905092915050565b62000b54826200063d565b67ffffffffffffffff81111562000b705762000b6f62000460565b5b62000b7c82546200088a565b62000b8982828562000aae565b600060209050601f83116001811462000bc1576000841562000bac578287015190505b62000bb8858262000b2b565b86555062000c28565b601f19841662000bd1866200096d565b60005b8281101562000bfb5784890151825560018201915060208501945060208101905062000bd4565b8683101562000c1b578489015162000c17601f89168262000b0b565b8355505b6001600288020188555050505b50505050505056fe60806040523480156200001157600080fd5b5060405162001b7938038062001b798339818101604052810190620000379190620002b7565b826000806101000a81548173ffffffffffffffffffffffffffffffffffffffff021916908373ffffffffffffffffffffffffffffffffffffffff16021790555081600190816200008891906200059c565b5080600290816200009a91906200059c565b506001600360006101000a81548160ff02191690831515021790555050505062000683565b6000604051905090565b600080fd5b600080fd5b600073ffffffffffffffffffffffffffffffffffffffff82169050919050565b60006200010082620000d3565b9050919050565b6200011281620000f3565b81146200011e57600080fd5b50565b600081519050620001328162000107565b92915050565b600080fd5b600080fd5b6000601f19601f8301169050919050565b7f4e487b7100000000000000000000000000000000000000000000000000000000600052604160045260246000fd5b6200018d8262000142565b810181811067ffffffffffffffff82111715620001af57620001ae62000153565b5b80604052505050565b6000620001c4620000bf565b9050620001d2828262000182565b919050565b600067ffffffffffffffff821115620001f557620001f462000153565b5b620002008262000142565b9050602081019050919050565b60005b838110156200022d57808201518184015260208101905062000210565b60008484015250505050565b6000620002506200024a84620001d7565b620001b8565b9050828152602081018484840111156200026f576200026e6200013d565b5b6200027c8482856200020d565b509392505050565b600082601f8301126200029c576200029b62000138565b5b8151620002ae84826020860162000239565b91505092915050565b600080600060608486031215620002d357620002d2620000c9565b5b6000620002e38682870162000121565b935050602084015167ffffffffffffffff811115620003075762000306620000ce565b5b620003158682870162000284565b925050604084015167ffffffffffffffff811115620003395762000338620000ce565b5b620003478682870162000284565b9150509250925092565b600081519050919050565b7f4e487b7100000000000000000000000000000000000000000000000000000000600052602260045260246000fd5b60006002820490506001821680620003a457607f821691505b602082108103620003ba57620003b96200035c565b5b50919050565b60008190508160005260206000209050919050565b60006020601f8301049050919050565b600082821b905092915050565b600060088302620004247fffffffffffffffffffffffffffffffffffffffffffffffffffffffffffffffff82620003e5565b620004308683620003e5565b95508019841693508086168417925050509392505050565b6000819050919050565b6000819050919050565b60006200047d62000477620004718462000448565b62000452565b62000448565b9050919050565b6000819050919050565b62000499836200045c565b620004b1620004a88262000484565b848454620003f2565b825550505050565b600090565b620004c8620004b9565b620004d58184846200048e565b505050565b5b81811015620004fd57620004f1600082620004be565b600181019050620004db565b5050565b601f8211156200054c576200051681620003c0565b6200052184620003d5565b8101602085101562000531578190505b620005496200054085620003d5565b830182620004da565b50505b505050565b600082821c905092915050565b6000620005716000198460080262000551565b1980831691505092915050565b60006200058c83836200055e565b9150826002028217905092915050565b620005a78262000351565b67ffffffffffffffff811115620005c357620005c262000153565b5b620005cf82546200038b565b620005dc82828562000501565b600060209050601f831160018114620006145760008415620005ff578287015190505b6200060b85826200057e565b8655506200067b565b601f1984166200062486620003c0565b60005b828110156200064e5784890151825560018201915060208501945060208101905062000627565b868310156200066e57848901516200066a601f8916826200055e565b8355505b6001600288020188555050505b505050505050565b6114e680620006936000396000f3fe608060405234801561001057600080fd5b50600436106100935760003560e01c806342b03cc91161006657806342b03cc91461013a57806353fa2e64146101565780638e7ea5b214610187578063cdd72253146101a5578063ed836bc3146101c357610093565b806306a49fce1461009857806324108475146100b65780633477ee2e146100d257806335b8e82014610106575b600080fd5b6100a06101e2565b6040516100ad9190610b7d565b60405180910390f35b6100d060048036038101906100cb9190610d1e565b6101ec565b005b6100ec60048036038101906100e79190610d7a565b610306565b6040516100fd959493929190610e26565b60405180910390f35b610120600480360381019061011b9190610d7a565b61055c565b604051610131959493929190610e26565b60405180910390f35b610154600480360381019061014f9190610e95565b610817565b005b610170600480360381019061016b9190610f6c565b610967565b60405161017e929190610fd0565b60405180910390f35b61018f6109ae565b60405161019c9190610b7d565b60405180910390f35b6101ad610a33565b6040516101ba9190610b7d565b60405180910390f35b6101cb610a3d565b6040516101d9929190610ff9565b60405180910390f35b6000600654905090565b6005816040516101fc919061106c565b908152602001604051809103902060010160009054906101000a900460ff161561025b576040517f08c379a0000000000000000000000000000000000000000000000000000000008152600401610252906110cf565b60405180910390fd5b604051806040016040528083815260200160011515815250600582604051610283919061106c565b90815260200160405180910390206000820151816000015560208201518160010160006101000a81548160ff021916908315150217905550905050600760008154809291906102d19061111e565b91905055506004600083815260200190815260200160002060030160008154809291906102fd9061111e565b91905055505050565b600460205280600052604060002060009150905080600001805461032990611195565b80601f016020809104026020016040519081016040528092919081815260200182805461035590611195565b80156103a25780601f10610377576101008083540402835291602001916103a2565b820191906000526020600020905b81548152906001019060200180831161038557829003601f168201915b5050505050908060010180546103b790611195565b80601f01602080910402602001604051908101604052809291908181526020018280546103e390611195565b80156104305780601f1061040557610100808354040283529160200191610430565b820191906000526020600020905b81548152906001019060200180831161041357829003601f168201915b50505050509080600201805461044590611195565b80601f016020809104026020016040519081016040528092919081815260200182805461047190611195565b80156104be5780601f10610493576101008083540402835291602001916104be565b820191906000526020600020905b8154815290600101906020018083116104a157829003601f168201915b5050505050908060030154908060040180546104d990611195565b80601f016020809104026020016040519081016040528092919081815260200182805461050590611195565b80156105525780601f1061052757610100808354040283529160200191610552565b820191906000526020600020905b81548152906001019060200180831161053557829003601f168201915b5050505050905085565b606080606060006060600460008781526020019081526020016000206000016004600088815260200190815260200160002060010160046000898152602001908152602001600020600201600460008a815260200190815260200160002060030154600460008b81526020019081526020016000206004018480546105e090611195565b80601f016020809104026020016040519081016040528092919081815260200182805461060c90611195565b80156106595780601f1061062e57610100808354040283529160200191610659565b820191906000526020600020905b81548152906001019060200180831161063c57829003601f168201915b5050505050945083805461066c90611195565b80601f016020809104026020016040519081016040528092919081815260200182805461069890611195565b80156106e55780601f106106ba576101008083540402835291602001916106e5565b820191906000526020600020905b8154815290600101906020018083116106c857829003601f168201915b505050505093508280546106f890611195565b80601f016020809104026020016040519081016040528092919081815260200182805461072490611195565b80156107715780601f1061074657610100808354040283529160200191610771565b820191906000526020600020905b81548152906001019060200180831161075457829003601f168201915b5050505050925080805461078490611195565b80601f01602080910402602001604051908101604052809291908181526020018280546107b090611195565b80156107fd5780601f106107d2576101008083540402835291602001916107fd565b820191906000526020600020905b8154815290600101906020018083116107e057829003601f168201915b505050505090509450945094509450945091939590929450565b60008054906101000a900473ffffffffffffffffffffffffffffffffffffffff1673ffffffffffffffffffffffffffffffffffffffff163373ffffffffffffffffffffffffffffffffffffffff16146108a5576040517f08c379a000000000000000000000000000000000000000000000000000000000815260040161089c90611212565b60405180910390fd5b6000600660008154809291906108ba9061111e565b9190505590506040518060a00160405280868152602001858152602001848152602001600081526020018381525060046000838152602001908152602001600020600082015181600001908161091091906113de565b50602082015181600101908161092691906113de565b50604082015181600201908161093c91906113de565b5060608201518160030155608082015181600401908161095c91906113de565b509050505050505050565b6005818051602081018201805184825260208301602085012081835280955050505050506000915090508060000154908060010160009054906101000a900460ff16905082565b60008060046000808152602001908152602001600020600301549050600080600190505b600654811015610a2a576004600082815260200190815260200160002060030154831015610a1757600460008281526020019081526020016000206003015492508091505b8080610a229061111e565b9150506109d2565b50809250505090565b6000600754905090565b60608060016002818054610a5090611195565b80601f0160208091040260200160405190810160405280929190818152602001828054610a7c90611195565b8015610ac95780601f10610a9e57610100808354040283529160200191610ac9565b820191906000526020600020905b815481529060010190602001808311610aac57829003601f168201915b50505050509150808054610adc90611195565b80601f0160208091040260200160405190810160405280929190818152602001828054610b0890611195565b8015610b555780601f10610b2a57610100808354040283529160200191610b55565b820191906000526020600020905b815481529060010190602001808311610b3857829003601f168201915b50505050509050915091509091565b6000819050919050565b610b7781610b64565b82525050565b6000602082019050610b926000830184610b6e565b92915050565b6000604051905090565b600080fd5b600080fd5b610bb581610b64565b8114610bc057600080fd5b50565b600081359050610bd281610bac565b92915050565b600080fd5b600080fd5b6000601f19601f8301169050919050565b7f4e487b7100000000000000000000000000000000000000000000000000000000600052604160045260246000fd5b610c2b82610be2565b810181811067ffffffffffffffff82111715610c4a57610c49610bf3565b5b80604052505050565b6000610c5d610b98565b9050610c698282610c22565b919050565b600067ffffffffffffffff821115610c8957610c88610bf3565b5b610c9282610be2565b9050602081019050919050565b82818337600083830152505050565b6000610cc1610cbc84610c6e565b610c53565b905082815260208101848484011115610cdd57610cdc610bdd565b5b610ce8848285610c9f565b509392505050565b600082601f830112610d0557610d04610bd8565b5b8135610d15848260208601610cae565b91505092915050565b60008060408385031215610d3557610d34610ba2565b5b6000610d4385828601610bc3565b925050602083013567ffffffffffffffff811115610d6457610d63610ba7565b5b610d7085828601610cf0565b9150509250929050565b600060208284031215610d9057610d8f610ba2565b5b6000610d9e84828501610bc3565b91505092915050565b600081519050919050565b600082825260208201905092915050565b60005b83811015610de1578082015181840152602081019050610dc6565b60008484015250505050565b6000610df882610da7565b610e028185610db2565b9350610e12818560208601610dc3565b610e1b81610be2565b840191505092915050565b600060a0820190508181036000830152610e408188610ded565b90508181036020830152610e548187610ded565b90508181036040830152610e688186610ded565b9050610e776060830185610b6e565b8181036080830152610e898184610ded565b90509695505050505050565b60008060008060808587031215610eaf57610eae610ba2565b5b600085013567ffffffffffffffff811115610ecd57610ecc610ba7565b5b610ed987828801610cf0565b945050602085013567ffffffffffffffff811115610efa57610ef9610ba7565b5b610f0687828801610cf0565b935050604085013567ffffffffffffffff811115610f2757610f26610ba7565b5b610f3387828801610cf0565b925050606085013567ffffffffffffffff811115610f5457610f53610ba7565b5b610f6087828801610cf0565b91505092959194509250565b600060208284031215610f8257610f81610ba2565b5b600082013567ffffffffffffffff811115610fa057610f9f610ba7565b5b610fac84828501610cf0565b91505092915050565b60008115159050919050565b610fca81610fb5565b82525050565b6000604082019050610fe56000830185610b6e565b610ff26020830184610fc1565b9392505050565b600060408201905081810360008301526110138185610ded565b905081810360208301526110278184610ded565b90509392505050565b600081905092915050565b600061104682610da7565b6110508185611030565b9350611060818560208601610dc3565b80840191505092915050565b6000611078828461103b565b915081905092915050565b7f4e6f206475706c69636174696f6e20766f746500000000000000000000000000600082015250565b60006110b9601383610db2565b91506110c482611083565b602082019050919050565b600060208201905081810360008301526110e8816110ac565b9050919050565b7f4e487b7100000000000000000000000000000000000000000000000000000000600052601160045260246000fd5b600061112982610b64565b91507fffffffffffffffffffffffffffffffffffffffffffffffffffffffffffffffff820361115b5761115a6110ef565b5b600182019050919050565b7f4e487b7100000000000000000000000000000000000000000000000000000000600052602260045260246000fd5b600060028204905060018216806111ad57607f821691505b6020821081036111c0576111bf611166565b5b50919050565b7f4f6e6c7920456c656374696f6e20417574686f72697479000000000000000000600082015250565b60006111fc601783610db2565b9150611207826111c6565b602082019050919050565b6000602082019050818103600083015261122b816111ef565b9050919050565b60008190508160005260206000209050919050565b60006020601f8301049050919050565b600082821b905092915050565b6000600883026112947fffffffffffffffffffffffffffffffffffffffffffffffffffffffffffffffff82611257565b61129e8683611257565b95508019841693508086168417925050509392505050565b6000819050919050565b60006112db6112d66112d184610b64565b6112b6565b610b64565b9050919050565b6000819050919050565b6112f5836112c0565b611309611301826112e2565b848454611264565b825550505050565b600090565b61131e611311565b6113298184846112ec565b505050565b5b8181101561134d57611342600082611316565b60018101905061132f565b5050565b601f8211156113925761136381611232565b61136c84611247565b8101602085101561137b578190505b61138f61138785611247565b83018261132e565b50505b505050565b600082821c905092915050565b60006113b560001984600802611397565b1980831691505092915050565b60006113ce83836113a4565b9150826002028217905092915050565b6113e782610da7565b67ffffffffffffffff811115611400576113ff610bf3565b5b61140a8254611195565b611415828285611351565b600060209050601f8311600181146114485760008415611436578287015190505b61144085826113c2565b8655506114a8565b601f19841661145686611232565b60005b8281101561147e57848901518255600182019150602085019450602081019050611459565b8683101561149b5784890151611497601f8916826113a4565b8355505b6001600288020188555050505b50505050505056fea26469706673582212200dae61a76249bbb7a709d0a1adbe11ad237cb9c8b554fb3980af699df0ac448664736f6c63430008110033a2646970667358221220c34bb781f8bdf9e98840612facdd581c404e31612265fa4cc8e186c48f5ba5d864736f6c63430008110033",
  "linkReferences": {},
  "deployedLinkReferences": {}
}